:100000000C9485000C94A2000C94A2000C94A20005
:100010000C94A2000C94A2000C94A2000C94A200D8
:100020000C94A2000C94A2000C94A2000C94A200C8
:100030000C94A2000C94A2000C94A2000C94A200B8
:100040000C94BB000C94A2000C94A2000C94A2008F
:100050000C94A2000C94A2000C94A2000C94A20098
:100060000C94C1010C94A200DC012E022E022E027F
:100070002E022E022E022E02DC012E022E022E0253
:100080002E022E022E022E02DE012E022E022E0241
:100090002E022E022E022E022E022E022E022E02E0
:1000A0002E022E022E022E02DE012E022E022E0221
:1000B0002E022E022E022E022E022E022E022E02C0
:1000C0002E022E022E022E022A022E022E022E02B4
:1000D0002E022E022E022E0207022E022E022E02C7
:1000E0002E022E022E022E022E022E022E022E0290
:1000F0002E022E022E022E02FB012E022E022E02B4
:100100002E022E022E022E02190211241FBECFEF44
:10011000D8E0DEBFCDBF11E0A0E0B1E0E2E6F6E05E
:1001200002C005900D92A630B107D9F721E0A6E0F4
:10013000B1E001C01D92A533B207E1F70E94FD00B6
:100140000C942F030C9400008FE384B98FEF85B9D2
:1001500081E087B99FEC98B91AB81BB8F89493E07E
:1001600094BD9CE095BD9FE197BD80936E000E9479
:100170008B01789408951F920F920FB60F9211245D
:100180008F9381E0809306018F910F900FBE0F90A7
:100190001F90189585B1816185B92A9880E195B144
:1001A000957D95B995B19A6295B98150C1F7289816
:1001B0002A9A85B1857F85B985B18A6085B92A98E3
:1001C000289A40E858E060E829E230E08091060192
:1001D0008823E1F31092060121503109B9F7942FD9
:1001E000852F2C9890FF2C9A2D982D9A96958150BA
:1001F000C1F7469549F7462FE7CF0E94A4004098E3
:10020000409A85B1816185B92A9890E185B1857D53
:1002100085B985B18A6285B99150C1F728982A9A23
:1002200085B1857F85B985B18A6085B92A98289A74
:1002300010E06894AA24A3F80F2EF6E26F2EF1E0E6
:100240007F2EF02D0F2EF5E3CF2EF1E0DF2EF02DD7
:10025000C5E2D1E00F2EF6E0EF2EF12CF02D8091CB
:1002600006018823E1F310920601E0910701F0E016
:10027000E15EFE4F80819A2D2C9880FF2C9A2D985C
:100280002D9A86959150C1F7809107018F5F8093D9
:100290000701863039F4109207012A9A2B982B9A7D
:1002A0002A9837C02B982B9A34C099B191932998EA
:1002B000299AEC15FD05C9F780910401880F888300
:1002C00060E1CE010E94950128982998299A289AE0
:1002D0001F5F1C30B9F40E94BC024C010E94BC029A
:1002E0009C01C401B7010E944202FC01E15EFE4F85
:1002F000307833232CF4215031093F6F2F5F3F4F6B
:10030000208310E080910601882309F4A8CF0E9481
:10031000CA00F301CACF82E08093B8008FEF8093C8
:10032000BB0084E08093BC000895CF93DF93EC0181
:10033000ECEBF0E0908190FDFDCF60930A018881A5
:1003400080930B0180FD12C0623080F0FE01319677
:10035000ACE0B1E06250262F30E02E5F3F4F2C0F13
:100360003D1F91919D93E217F307D9F71092090170
:1003700088EF8093050185EA8093BC00DF91CF91DF
:1003800008951F920F920FB60F9211242F933F934F
:100390008F939F93AF93BF93EF93FF93E091B90037
:1003A0008E2F90E0FC013897E135F10508F056C03A
:1003B000EC5CFF4F0C94560210920801E09108018A
:1003C00080910A01E81770F481E08E0F8093080194
:1003D000F0E0E55FFE4F80818093BB0085E880936D
:1003E000BC0043C08091090181608093090184E9C8
:1003F0008093BC003AC0E091080181E08E0F8093A9
:1004000008018091BB00F0E0E55FFE4F8083209102
:10041000080130E080910A0190E001972817390720
:1004200024F485EC8093BC0020C085E88093BC0058
:100430001CC08091BB00E0910801F0E0E55FFE4F39
:1004400080838091090181608093090184E9809310
:10045000BC000BC085EA8093BC0007C08091B90046
:100460008093050184E08093BC00FF91EF91BF91E0
:10047000AF919F918F913F912F910F900FBE0F9051
:100480001F90189597FB072E16F4009407D077FD60
:1004900009D00E945C0207FC05D03EF4909581953E
:1004A0009F4F0895709561957F4F0895EE0FFF1F40
:1004B0000590F491E02D0994AA1BBB1B51E107C0E4
:1004C000AA1FBB1FA617B70710F0A61BB70B881FE4
:1004D000991F5A95A9F780959095BC01CD01089573
:1004E0008F929F92AF92BF92CF92DF92EF92FF9244
:1004F000CF93DF93EC01688179818A819B816115BB
:1005000071058105910521F464E279ED8BE597E0B1
:100510002DE133EF41E050E00E94CC0249015A0145
:100520009B01AC01A7EAB1E40E94EB026B017C01E4
:10053000ACEEB4EFA50194010E94F902DC01CB01FD
:100540008C0D9D1DAE1DBF1DB7FF03C00197A109F6
:10055000B04888839983AA83BB839F77DF91CF912B
:10056000FF90EF90DF90CF90BF90AF909F908F90D3
:1005700008950E947002089580E091E00E94700248
:100580000895A0E0B0E08093000190930101A09352
:100590000201B09303010895052E97FB1EF4009409
:1005A0000E94E30257FD07D00E94FE0207FC03D021
:1005B0004EF40C94E30250954095309521953F4FB1
:1005C0004F4F5F4F089590958095709561957F4F3F
:1005D0008F4F9F4F08950E942003A59F900DB49FB9
:1005E000900DA49F800D911D11240895B7FF0C94C8
:1005F000EB020E94EB02821B930B0895A1E21A2EDC
:10060000AA1BBB1BFD010DC0AA1FBB1FEE1FFF1FB6
:10061000A217B307E407F50720F0A21BB30BE40B06
:10062000F50B661F771F881F991F1A9469F760954D
:100630007095809590959B01AC01BD01CF01089507
:10064000A29FB001B39FC001A39F700D811D112413
:10065000911DB29F700D811D1124911D0895F89474
:02066000FFCFCA
:060662000100000030F869
:00000001FF
