:100000000C9434000C9451000C9451000C94510049
:100010000C9451000C9451000C9451000C9451001C
:100020000C9451000C9451000C9451000C9451000C
:100030000C9451000C9451000C9451000C945100FC
:100040000C9467000C9451000C9451000C945100D6
:100050000C9451000C9451000C9451000C945100DC
:100060000C9451000C94510011241FBECFEFD8E026
:10007000DEBFCDBF21E0A4E0B1E001C01D92AB31F5
:10008000B207E1F711E0A0E0B1E0E6E2F4E002C07F
:1000900005900D92A430B107D9F70E94A9000C94E5
:1000A00011020C9400008FE384B99FEF95B981E0B1
:1000B00087B998B91AB81BB8F89493E094BD9CE03E
:1000C00095BD9FE097BD80936E00789408951F9230
:1000D0000F920FB60F9211248F9381E08093040149
:1000E0008F910F900FBE0F901F90189585B1816171
:1000F00085B92A9880E195B1957D95B995B19A62B7
:1001000095B98150C1F728982A9A85B1857F85B91C
:1001100085B18A6085B92A98289A40E858E060E855
:1001200029E230E0809104018823E1F31092040178
:1001300021503109B9F7942F852F2C9890FF2C9AD4
:100140002D982D9A96958150C1F7469549F7462FDF
:10015000E7CF8AE391E00E94A3010E9453004098F8
:10016000409A85B1816185B92A9890E185B1857DF4
:1001700085B985B18A6285B99150C1F728982A9AC4
:1001800085B1857F85B985B18A6085B92A98289A15
:1001900020E06894DD24D3F8CCE0D1E00F2EFBE121
:1001A000EF2EF1E0FF2EF02D06E010E0809104012B
:1001B0008823E1F310920401E0910501F0E0EA5F89
:1001C000FE4F90818D2D2C9890FF2C9A2D982D9A72
:1001D00096958150C1F7809105018F5F809305014D
:1001E000863039F4109205012A9A2B982B9A2A9876
:1001F0002FC02B982B9A2CC089B181932998299ACA
:10020000EE15FF05C9F728982998299A289A2F5F93
:100210002C30B9F40E949E015C010E949E019C0159
:10022000C501B8010E942A01FC01EA5FFE4F307847
:1002300033232CF4215031093F6F2F5F3F4F208330
:1002400020E080910401882309F4B0CF0E94760059
:10025000FE01D2CF97FB072E16F4009407D077FD4E
:1002600009D00E943E0107FC05D03EF4909581958F
:100270009F4F0895709561957F4F0895AA1BBB1BF2
:1002800051E107C0AA1FBB1FA617B70710F0A61B96
:10029000B70B881F991F5A95A9F780959095BC01B7
:1002A000CD0108958F929F92AF92BF92CF92DF922D
:1002B000EF92FF92CF93DF93EC01688179818A817D
:1002C0009B81611571058105910521F464E279ED49
:1002D0008BE597E02DE133EF41E050E00E94AE0165
:1002E00049015A019B01AC01A7EAB1E40E94CD018A
:1002F0006B017C01ACEEB4EFA50194010E94DB011F
:10030000DC01CB018C0D9D1DAE1DBF1DB7FF03C0D1
:100310000197A109B04888839983AA83BB839F77FB
:10032000DF91CF91FF90EF90DF90CF90BF90AF9093
:100330009F908F9008950E945201089580E091E06F
:100340000E9452010895A0E0B0E0809300019093D4
:100350000101A0930201B09303010895052E97FBBC
:100360001EF400940E94C50157FD07D00E94E001D1
:1003700007FC03D04EF40C94C50150954095309580
:1003800021953F4F4F4F5F4F089590958095709501
:1003900061957F4F8F4F9F4F08950E940202A59F46
:1003A000900DB49F900DA49F800D911D1124089570
:1003B000B7FF0C94CD010E94CD01821B930B0895D1
:1003C000A1E21A2EAA1BBB1BFD010DC0AA1FBB1F59
:1003D000EE1FFF1FA217B307E407F50720F0A21BCB
:1003E000B30BE40BF50B661F771F881F991F1A9438
:1003F00069F760957095809590959B01AC01BD0162
:10040000CF010895A29FB001B39FC001A39F700DBB
:10041000811D1124911DB29F700D811D1124911D0C
:060420000895F894FFCFDF
:0404260001000000D1
:00000001FF
